:04000000020029329F
:01000B0032C2
:0100130032BA
:01001B0032B2
:030023000207EEE3
:12008200750800E4F509F50A750BFFC200C20B020026D8
:0300260002092AA2
:2000940075FFDE75FFAD22758400758801758921758E18758DAF75840075C90A75CB0C75D3
:2000B400CC0D75CD0B75840275C90275CA8D75CB34227584007598702275840075CFE92289
:2000D400758400759A4075F801759D7C2275840075E8802275840075D49C2275840075D16F
:2000F400032275840F75A4FD75A7E075E10675E3402275840F758C677EB87F0BEE24FFFC5A
:20011400EF34FFFD8C068D07EC4D70F0E58C30E7FB7597012275A8B02212009412009B12E7
:2001340000C61200CD1200D41200E11200E81200EF1200F612010612012922D2A3A2029208
:20015400A0A202B392A1A20192A200000000D2A4000000000000000075840F85C882758444
:200174000000000000C2A400000000000000000000000022AF82C201A2049202C0071201DB
:200194004FE582D00720E7EEC2A3A20492A0A204B392A1A20392A275840F8FC875840000CF
:2001B400000000D2A4000000000000000000000000C2A475840F75C8FF758400D2A300009D
:2001D4000000000000000000000022C2A4D2A5D2A0D2A175840F75C8FF7584007F00BF02AA
:2001F40000504EEF24FF9205C201A2059202C00712014FE582D00720E4E9C203A205920450
:2002140075823FC007120188C203A2059204758240120188C203A20592047582B812018812
:20023400C203A20592047582C0120188D0070F80AD22AF8253073F74404FF582C203A20670
:20025400920412018822AF8253070774B84FF582C203A2079204120188227F00A208920730
:200274008F82C00712025AA2089206758200120246D0077E00D203A2089204758200C00769
:20029400C006120188D006D0070EBE400040E60FBF080040C722AF82BF2000400CEF24801C
:2002B4004007EF24E0F582800BBFB0057582608003758200221202AAE58275F005A42461CF
:2002D400FE740F35F0FF8E828F83E493FDD203A20992048D82C007C006120188D006D007D5
:2002F4008E828F83A3E493FDD203A20992048D82C007C006120188D006D0078E828F83A3F2
:20031400A3E493FDD203A20992048D82C007C006120188D006D0078E828F83A3A3A3E49336
:20033400FDD203A20992048D82C007C006120188D006D0078E828F83A3A3A3A3E493FFD2BC
:2003540003A20992048F82120188D203A2099204758200120188D203A209920475820012D2
:200374000188D203A209920475820012018822AF8275FFA5EF24F7402CEF14FEC2078E827C
:20039400C00612025AC206758200120246D006D2078E8212025AD206758200120246750829
:2003B40000C2008022BF09028003300009D2008F9910991380FB74F82508920AA20A920992
:2003D4008F821202C905082275840022AE82AF834389015389FDEE4F601975FFA5C28CC2EA
:2003F4008D758A58758C9ED28C308DFD1EBEFF011F80E322AE82AF834389025389FEC28C76
:20041400C28D758AE7758CE7D28CEE4F600F75FFA5108D0280FB1EBEFF011F80ED22AE82B4
:20043400AF838E05C2A3759B0230F9FD8F9B30F9FD8D9B30F9FD85149B30F9FDC2FF10FF7E
:200454000280FBD2A322AE82AF838E05C2A3759B0330F9FD8F9B30F9FD8D9B30F9FD759B33
:200474000030F9FDC2FF10FF0280FBD2A3859B82227E007F007C007D007514AA8C828D8375
:20049400C007C006C005C004120432D004D0058C828D83C005C00412045AAB82D004D00554
:2004B400D006D007BBAA02801AC006C0077441C0E07411C0E012097CE58124FCF5817582E9
:2004D40000802EC005C004C004C0057452C0E07411C0E012097CE58124FCF581D004D00581
:2004F4000CBC00010D8C068D0774E02D508B758201227E037F00EE4F601FC2B59001F4C0FE
:2005140007C0061203E0D2B59001F41203E0D006D0071EBEFF011F80DDC2B522AE82AF8304
:20053400BEFF06BFFF0312053E22C20812026ED20812026EC20775820012025AD207758206
:200554000012025AE4C0E0C0E0C0E0C0E0C0E0C0E0C0E0C0E0745DC0E07411C0E012097C08
:20057400E58124F6F5811207F9E58275F00AA4FEAFF08E828F83C007C006120530D006D0AC
:2005940007C007C006E4C0E0C0E0C0E0C0E0C0E0C0E0C006C007745DC0E07411C0E01209D1
:2005B4007CE58124F6F5811207F9AC827D008D83C005C004120530D004D005D006D007C002
:2005D40007C006C005C004E4C0E0C0E0C0E0C0E0C004C005C006C007745DC0E07411C0E0A1
:2005F40012097CE58124F6F5811207F9E58275F00AA4FAABF08A828B83C003C00212053053
:20061400D002D003D004D005D006D007C374329A74808BF063F08095F050047A327B00C0C6
:2006340007C006C005C004C003C002E4C0E0C0E0C002C003C004C005C006C007745DC0E09B
:200654007411C0E012097CE58124F6F5811207F9A882790088828983C001C000120530D071
:2006740000D001D002D003D004D005D006D007C007C006C005C004C003C002C001C000C0BE
:2006940000C001C002C003C004C005C006C007745DC0E07411C0E012097CE58124F6F581C7
:2006B400D000D001D002D003D004D005D006D007EC2EF514ED3FF51590003CC003C002C020
:2006D40001C000120E40AE82AF83D000D001D002D003E82AFAE93BFBEA2EF582EB3FF583E1
:2006F40022AE0B7F00C208C007C00612026ED20812026EC20775820012025AD20775820059
:2007140012025AD006D007C007C006C006C007746EC0E07411C0E012097CE58124FCF58156
:20073400D006D0078E828F8322C20812026ED20812026EC20775820012025AD2077582000E
:2007540012025A7478C0E07411C0E012097C158115817486C0E07411C0E012097C158115A2
:20077400817496C0E07411C0E012097C1581158174A3C0E07411C0E012097C158115817E35
:20079400007F00BE640BBF0008BE6505BF0002800B1207F9AD828D067F0080E7C007C00617
:2007B40074B1C0E07411C0E012097C15811581D006D007E4BE6504BF000104FDE4BE6404F5
:2007D400BF000104FFEF600812053E1208588009ED60F21206F512085822309807D20B858A
:2007F400990CC2983220B005758200803B20B105758201803320B205758202802B20B30559
:20081400758203802320B405758204801B20B505758205801320B605758206800B20B70510
:2008340075820780037582FF22C20812026ED20812026EC20775820012025AD20775820065
:2008540012025A22AE82AF83C2B7D2B6C208C007C00612026ED20812026EC207758200128A
:20087400025AD20775820012025AD006D007EF30E70302090D75143C7515008E828F83C0CB
:2008940007C006120F25AC82AD83D006D00775143C7515008E828F83C007C006C005C0049F
:2008B400120EEFAA82AB83C003C00274C1C0E07411C0E012097C15811581D002D003D00400
:2008D400D005C002C003C004C00574D1C0E07411C0E012097CE58124FAF581D0068E14907E
:2008F4000001C0061204329003E81203E0D006D0071EBEFF011F020882D2B7C2B612050613
:2009140074DDC0E07411C0E012097C158115819003E81203E022C2B512012D1203DC12019D
:20093400DF12083D75140590000112043290000112045AAF827E00C007C006C007C00674C8
:20095400E6C0E07411C0E012097CE58124FCF5819013881203E0D006D0078F828E8312083C
:080974005890D4C01203E022E8
:200F6100000000000000005F00000007000700147F147F14242A7F2A12231308646236493D
:200F81005522500005030000001C2241000041221C00082A1C2A0808083E08080050300025
:200FA100000808080808003030000020100804023E5149453E00427F40004261514946216A
:200FC10041454B311814127F1027454545393C4A4949300171090503364949493606494968
:200FE100291E003636000000563600000008142241141414141441221408000201510906EC
:20100100324979413E7E1111117E7F494949363E414141227F4141221C7F494949417F0918
:201021000901013E414151327F0808087F00417F41002040413F017F081422417F4040402C
:20104100407F0204027F7F0408107F3E4141413E7F090909063E4151215E7F0919294646AB
:201061004949493101017F01013F4040403F1F2040201F7F2018207F631408146303047819
:201081000403615149454300007F4141020408102041417F00000402010204404040404038
:2010A100000102040020545454787F484444383844444420384444487F3854545418087E90
:2010C100090102081454543C7F0804047800447D40002040443D00007F10284400417F401F
:2010E100007C041804787C0804047838444444387C14141408081414187C7C08040408483B
:2011010054545420043F4440203C4040207C1C2040201C3C4030403C44281028440C5050FF
:20112100503C4464544C44000836410000007F0000004136080008082A1C08081C2A08085D
:2011410002204552524F3A206D656D3D2530356400022069203D2025303564000220543ACA
:201161002025642025642025642025640054656D706F2025643A00012053656C6563696FFD
:201181006E65206F0002207469706F20656E74726164613A00042061202D204D616E7561F1
:2011A1006C00052062202D204469676974616C0006205475646F2070726F6E746F2121004A
:2011C100012053746172742054696D65722E2E000220253032643A25303264000720507247
:1311E1006F6E746F00012054656D706F3A2025642073009F
:20097C00C013858113E51324FDF8868318868218E493A3B42577C20CC20DC20EC20FC210A3
:20099C00C211790D7700C212E493A324C64017240A50157005B50D02D211D210FAE775F065
:2009BC000AA42AF780E2240A2430B46C04D20C80D7B46804D20D80D0B47303020A14B4645E
:2009DC0006120CEE020A70B47506120CEE020A90B4630518E6188017B47803020A4FB46629
:2009FC0003020BA4B42E06790E7700809B6006120DE002098C020DFAC083C08286F0188688
:200A1C008318868218301019C211C082C083120ED36007A3150DE50D70F4120DCBD083D0CC
:200A3C0082120ED36006A3120DE080F5D082D08302098C120A67200D0C120A67300C0612D9
:200A5C000A67120A67120DF202098CE6120DD0E618020DD1ED30E71CD20FE9F42401F9200F
:200A7C000D12EAF43400FA300C0AEBF43400FBECF43400FC200D10300C08EB7024EC70214E
:200A9C00C20CEA701CD20DE97017201214301009E50D6005150D120DCB7430120DE0020907
:200ABC008CC082C083120D08301060790A300C1DEB54F0703619EB540F703019EA54F070D3
:200ADC002A19EA540F702419EF54F0701E7905200D0BEF540F701419EE54F0700E7903EE3D
:200AFC00540F700719ED54F0700119E50DA20F994019F50DC003C002C007C006C005120D9F
:200B1C00CBD005D006D007D002D003300F19C003C002C007C006C005742D120DE0D005D053
:200B3C0006D007D002D003200D40300C2CC005C006C0078A82EBF583120DD0E583120DD13A
:200B5C00E582120DD0E582120DD1D0E0F582120DD0E582D083D08280058D828E83EF120DF7
:200B7C00D1E583120DD0E58380038D82EE120DD1E582120DD0E582120DD1120DF2D083D078
:200B9C00823012012202098C30100EE50DD3950EF50D5028750D008023E6547FFA18860312
:200BBC0008AE82AF839013C07D07E4932BA3E4933A5003A3DDF48D0E8E828F83C000120C70
:200BDC00D0C082C083EFB47E02801940112482FDC3EA33FAEB33FBEC33FCDDF48006F42477
:200BFC007F120DFD75F01BE4F8FFFEFD901354E933F9EA33FAEB33FBEC33FC5017E4932D86
:200C1C00D4FD7401933ED4FE7402933FD4FF74039338D4F8A3A3A3A3D5F0D4E47C50FBFADC
:200C3C00F9E50E232354FC8883120DFDED29D4F512EE3AD4F511EF3BD4F510E5833CD4F58C
:200C5C000F92D5D083D082D000120CD0C000C3749E9F5005D0000209A4C082120DFDD082E7
:200C7C0030D50FE92401F9E43AFAE43BFBE43CFC40E2D212120A9020100CE50E6008120C88
:200C9C00C07003D50EF4E50E6015742E120DE07800D20E08E8120CC0120DD1E8B50EF4D0A0
:200CBC000002098C14C31392D5240FF9E720D501C4540F22E618F9E618FC33E933920FFFFE
:200CDC006003430480E618FBE618FA7900C20DD20C22E6F9FD18200D12AA01E6F918300C84
:200CFC000AAC02AB01E6FA18E6F91822E975F06484FE740AC5F084C445F0FD300D0122EA38
:200D1C00540FF99011F4932DD4FDE94410933ED4FEEAC4540FF9901214932DD4FDE94410C7
:200D3C00933ED4FEE94420933400D4FF200C0122EB540FF9901244932DD4FDE94410933EF2
:200D5C00D4FEE94420933FD4FFE43400FAEBC4540FF9901274932DD4FDE94410933ED4FE0F
:200D7C00E94420933FD4FFE94430933AD4FAEC540FF99012B47B00120D9EECC4540FF990FB
:200D9C001304932DD4FDE94410933ED4FEE94420933FD4FFE94430933AD4FAE94440933B8A
:200DBC00D4FB2274203011027430120DE0150DE50D70F022C4540F7003300E19D20E249091
:200DDC00D43440D4C083C082C000F582120383D000D082D08322200EFC7430020DE0D01350
:010DFC0022D4
:2011F4000056126824803692480460167228844000020507101215172023252830333538C3
:20121400009692888480767268646056524844400040812263044586276809509132731437
:20123400000000010102020203030404040505060036720844801652882460963268044014
:20125400005510662176328742985308641975300006131926323945525865727885919859
:201274000076522804805632088460361288644000857157432814008671574329140086DE
:20129400000409141924293438434853586368720001020304050607080910111213141538
:2012B400001632486480961228446076920824400072441688603205774921936538108230
:2012D40000775533108866442199775432108865001633506783001734506784011834515E
:2012F400000000000000010101010101020202020056126824803692480460167228844070
:2013140000540963187227813691450054096318004387307417610448913579226609538E
:2013340000683605734210794715845221895826000205081013161821242629323437408D
:20135400000000500000002500005012000025060050120300255601501278002506390058
:201374001253190056760900288804001444020007220100046100005230000026150000AC
:201394006307000081030000910100009500000048000000240000001200000006000000A0
:1A13B4000300000001000000010000007DC5DDC334C2E0BE38BD86BBE4B9D1
:06005800E478FFF6D8FD7C
:200DFD006040F82582500274FFF582E824F8501ECCCBCAF9E4CC24F85014CBCAF9E4CB24FE
:200E1D00F8500BCAF9E4CA24F8500379002224086010F8C3EC13FCEB13FBEA13FAE913F9B0
:030E3D00D8F122C7
:200036007900E94400601B7A009013CE780175A200E493F2A308B8000205A2D9F4DAF2758B
:02005600A2FF07
:1D0E4000E5828514F0A4C582C0F08515F0A4D0F025F0C5838514F0A42583F5832250
:200E5D00E514451560467A01E51425E0F514E515334012F515E5829514E583951540030A02
:200E7D0080E6C3E51513F515E51413F514C3E5829514F5F0E58395154005F58385F082C3BF
:0D0E9D00E51513F515E51413F514DAE1223F
:20005E007800E84400600A790175A200E4F309D8FC7800E84400600C7900900001E4F0A39E
:04007E00D8FCD9FAD7
:200EAA007A10E4FBFCE58225E0F582E58333F583EB33FBEC33FCEB9514F5F0EC9515400644
:090ECA00FCABF0438201DADD22E9
:0D002900758122120F5DE582600302002642
:1C0ED30020F71430F6148883A88220F507E6A88375830022E280F7E49322E0222E
:200EEF00C2D5E58330E70DD2D5E4C39582F582E49583F583E51530E70BE4C39514F514E417
:160F0F009515F515120E5D30D50BE4C39582F582E49583F58322C0
:200F2500C2D5E58330E70DD2D5E4C39582F582E49583F583E51530E70DB2D5E4C39514F54F
:180F450014E49515F515120EAA30D50BE4C39582F582E49583F5832243
:040F5D007582002277
:00000001FF
